:100000000C942A000C9447000C9447000C94B802FE
:100010000C9447000C9447000C9447000C94F00299
:100020000C9447000C9447000C94FF020C9447007A
:100030000C9447000C9447000C9447000C94470024
:100040000C9447000C9447000C9447000C94470014
:100050000C94470011241FBECFE5D8E0DEBFCDBF12
:1000600010E0A0E6B0E0EEE2FCE002C005900D92E8
:10007000AA36B107D9F720E0AAE6B0E001C01D9288
:10008000AB38B207E1F70E948B020C9415060C9472
:1000900000003E9A3F9887B1807E87B987B187B9C3
:1000A0003D9886B1887F86B986B1836086B9379AD4
:1000B0000895369A349BFECF84B125B1349A90E0EE
:1000C000922B089540E062E081E00E94FB0040E056
:1000D00061E081E00E94FB0040E063E081E00E947B
:1000E000FB0041E062E081E00E947E0141E061E0CE
:1000F00081E00E947E0141E063E081E00E947E0198
:1001000084B7806484BF8BB780628BBF0895CF9320
:10011000DF931F92CDB7DEB71982AE014F5F5F4FFD
:1001200061E081E00E9401028981811111C087EAAA
:1001300091E60197F1F700C00000AE014F5F5F4FFD
:1001400061E081E00E9401028981882319F003C0E7
:1001500080E001C081E00F90DF91CF910895CF93AF
:10016000DF931F92CDB7DEB71982AE014F5F5F4FAD
:1001700063E081E00E9401028981811111C087EA58
:1001800091E60197F1F700C00000AE014F5F5F4FAD
:1001900063E081E00E9401028981882319F003C095
:1001A00080E001C081E00F90DF91CF91089541E0A0
:1001B00064E081E00E94FB00089541E065E081E099
:1001C0000E94FB00089541E064E081E00E947E010E
:1001D000089541E065E081E00E947E01089540E0DD
:1001E00064E081E00E947E01089540E065E081E0E6
:1001F0000E947E010895683008F078C04130C1F552
:10020000813091F028F08230D9F0833029F170C02C
:100210002AB381E090E002C0880F991F6A95E2F747
:10022000822B8ABB81E0089527B381E090E002C071
:10023000880F991F6A95E2F7822B87BB81E00895AA
:1002400024B381E090E002C0880F991F6A95E2F71D
:10025000822B84BB81E0089521B381E090E002C04D
:10026000880F991F6A95E2F7822B81BB81E0089580
:10027000411140C0813099F028F08230E9F083309C
:1002800041F13AC02AB381E090E002C0880F991F83
:100290006A95E2F7809582238ABB81E0089527B3AF
:1002A00081E090E002C0880F991F6A95E2F780957F
:1002B000822387BB81E0089524B381E090E002C0EF
:1002C000880F991F6A95E2F78095822384BB81E0AD
:1002D000089521B381E090E002C0880F991F6A95CC
:1002E000E2F78095822381BB81E0089580E0089544
:1002F00080E0089580E0089580E00895683008F077
:1003000078C04130C1F5813091F028F08230D9F0C9
:10031000833029F170C02BB381E090E002C0880FD8
:10032000991F6A95E2F7822B8BBB81E0089528B371
:1003300081E090E002C0880F991F6A95E2F7822B56
:1003400088BB81E0089525B381E090E002C0880F6A
:10035000991F6A95E2F7822B85BB81E0089522B34D
:1003600081E090E002C0880F991F6A95E2F7822B26
:1003700082BB81E00895411140C0813099F028F09E
:100380008230E9F0833041F13AC02BB381E090E054
:1003900002C0880F991F6A95E2F7809582238BBB74
:1003A00081E0089528B381E090E002C0880F991F92
:1003B0006A95E2F78095822388BB81E0089525B392
:1003C00081E090E002C0880F991F6A95E2F780955E
:1003D000822385BB81E0089522B381E090E002C0D2
:1003E000880F991F6A95E2F78095822382BB81E08E
:1003F000089580E0089580E0089580E0089580E009
:1004000008956830C0F5813091F028F08230D9F03D
:10041000833029F132C089B390E002C09595879569
:100420006A95E2F78170FA01808381E0089586B3CE
:1004300090E002C0959587956A95E2F78170FA0180
:10044000808381E0089583B390E002C095958795FD
:100450006A95E2F78170FA01808381E0089580B3A4
:1004600090E002C0959587956A95E2F78170FA0150
:10047000808381E0089580E0089580E008958130D0
:1004800049F028F0823049F0833051F00CC06ABB4B
:1004900081E0089567BB81E0089564BB81E0089521
:1004A00061BB81E0089580E00895813049F028F033
:1004B000823049F0833051F00CC06BBB81E008956D
:1004C00068BB81E0089565BB81E0089562BB81E06F
:1004D000089580E008958EBB9FBBE09A8DB3089588
:1004E0008FB780688FBF08954FEF60E081E00E9472
:1004F000FB0040E060E081E00E947E0108954FEF44
:1005000060E081E00E947E01089540E060E081E0CB
:100510000E947E01089510926E0082E390E0909315
:10052000700080936F000E9462000E9470020E941F
:100530005A030E9449000E94DD000E94D7000E94D9
:1005400074020E94B8040E94CB040E94D8048091D7
:100550006E00813021F030F0823039F0FACF0E9405
:100560006304F5CF0E94AD04F2CF0E94B303EFCF36
:100570001F920F920FB60F9211242F933F934F9318
:100580005F936F937F938F939F93AF93BF93EF93FB
:10059000FF9380916E0081110DC081E080936E0009
:1005A00080E090E00E946B0290E090937000809356
:1005B0006F0005C08150823010F410926E00FF91E0
:1005C000EF91BF91AF919F918F917F916F915F91CB
:1005D0004F913F912F910F900FBE0F901F90189544
:1005E0001F920F920FB60F9211248F9381E0809388
:1005F0006C008F910F900FBE0F901F9018951F9257
:100600000F920FB60F9211242F933F938F939F93C6
:10061000109272001092710080916E0081508230B1
:1006200098F480916D008F5F80936D00982F937088
:1006300031F421E030E03093720020937100853175
:1006400018F081E080936E009F918F913F912F91E0
:100650000F900FBE0F901F901895E82FF0E0E05A12
:10066000FF4F608183E00E9455020895813051F46C
:1006700041E066E00E947E0140E067E081E00E9488
:100680007E010895823051F441E067E081E00E94EC
:100690007E0140E066E081E00E947E01089540E036
:1006A00066E081E00E947E0140E067E081E00E9418
:1006B0007E0108956FEF83E00E943F0241E066E013
:1006C00081E00E94FB0041E067E081E00E94FB00C6
:1006D0000E944F03089560E083E00E945502089550
:1006E000CF93DF93C82FD92F81E00E9436032C2FA0
:1006F0003D2FADECBCEC0E940606AC01569547952B
:100700005695479556954795CA01880F991F440FEE
:10071000551F440F551F440F551F480F591F8C2F4D
:10072000841B0E942D0381EE94E00197F1F700C035
:10073000000082E00E9436032C2F3D2FADECBCEC74
:100740000E94060696958795969587959695879526
:100750000E942D0381EE94E00197F1F700C00000A4
:10076000DF91CF9108950E94EF000E94F5000E9452
:1007700085028091710090917200019739F4809107
:100780006F00909170000E94700302C00E946B0382
:100790000E948700813069F480916F009091700011
:1007A0008B34910530F405969093700080936F0020
:1007B00010C00E94AF00813061F480916F00909171
:1007C00070008432910528F0059790937000809313
:1007D0006F000E948700811104C00E94AF0088232F
:1007E00041F080916F00909170000E947003109210
:1007F0006D000895809175009091760020916F00B2
:1008000030917000AC014B5F5F4F2417350790F4B7
:1008100005978217930738F40E94EF000E94F500B5
:100820000E94850208950E94EF000E94E9000E9444
:100830007F02089505978217930778F40E94E300DA
:100840000E94F5008091710090917200019719F457
:100850000E947F0208950E948502089520916A00F7
:1008600030916B00220F331F820F931FFC017183A5
:10087000608380916A0090916B0001968A309105A7
:1008800029F090936B0080936A00089510926B009A
:1008900010926A000895FC01AC014C5E5F4F20E0AD
:1008A00030E081919191280F391FE417F507C9F7BE
:1008B000ADECBCEC0E9406069695879596958795BB
:1008C00096958795089580916C00813009F50E9476
:1008D0005900BC0180E090E00E940B0520E030E070
:1008E00040E05FE30E9471050E94DC047093740095
:1008F0006093730087E790E00E942E0487E790E002
:100900000E944B04909376008093750010926C00C7
:1009100080917300909174000E9470030E94FA030A
:100920000E948700813021F00E94AF00813039F4AD
:1009300010926D000E944F0382E080936E00089534
:1009400085B78F7E85BF85B78F7D85BF85B78F7B48
:1009500085BF85B7806885BF08950E946B030E949C
:1009600085020E94EF000E94F5000E94A0040895F5
:1009700083B7886083BF83B78F7B83BF83B7887F4C
:1009800083BF83B7856083BF84EF8CBF89B78260E4
:1009900089BF789408958EB588608EBD1BBC82E6B1
:1009A0008ABD8EB5887F8EBD8EB585608EBD08955B
:1009B00089B7806189BF08950E94500588F09F57CC
:1009C00098F0B92F9927B751B0F0E1F0660F771F73
:1009D000881F991F1AF0BA95C9F714C0B13091F069
:1009E0000E946A05B1E008950C946A05672F782F7C
:1009F0008827B85F39F0B93FCCF38695779567952E
:100A0000B395D9F73EF490958095709561957F4F99
:100A10008F4F9F4F0895E89409C097FB3EF490953F
:100A20008095709561957F4F8F4F9F4F9923A9F0C7
:100A3000F92F96E9BB279395F69587957795679556
:100A4000B795F111F8CFFAF4BB0F11F460FF1BC09A
:100A50006F5F7F4F8F4F9F4F16C0882311F096E92D
:100A600011C0772321F09EE8872F762F05C06623DB
:100A700071F096E8862F70E060E02AF09A95660F94
:100A8000771F881FDAF7880F9695879597F908954D
:100A900057FD9058440F551F59F05F3F71F047952F
:100AA000880F97FB991F61F09F3F79F08795089514
:100AB000121613061406551FF2CF4695F1DF08C033
:100AC000161617061806991FF1CF86957105610550
:100AD00008940895E894BB2766277727CB0197F9F8
:100AE00008950E9484050C94F5050E94E70538F0EE
:100AF0000E94EE0520F0952311F00C94DE050C9475
:100B0000E40511240C946B050E94480570F3959F31
:100B1000C1F3950F50E0551F629FF001729FBB27F4
:100B2000F00DB11D639FAA27F00DB11DAA1F649F90
:100B30006627B00DA11D661F829F2227B00DA11D43
:100B4000621F739FB00DA11D621F839FA00D611DC9
:100B5000221F749F3327A00D611D231F849F600DEA
:100B6000211D822F762F6A2F11249F5750409AF013
:100B7000F1F088234AF0EE0FFF1FBB1F661F771F9F
:100B8000881F91505040A9F79E3F510580F00C946A
:100B9000DE050C946B055F3FE4F3983ED4F3869535
:100BA00077956795B795F795E7959F5FC1F7FE2B0A
:100BB000880F911D9695879597F9089597F99F67E6
:100BC00080E870E060E008959FEF80EC08950024D5
:100BD0000A941616170618060906089500240A94A2
:100BE00012161306140605060895092E0394000C28
:100BF00011F4882352F0BB0F40F4BF2B11F460FFB7
:100C000004C06F5F7F4F8F4F9F4F0895A29FB00129
:100C1000B39FC001A39F700D811D1124911DB29F30
:0E0C2000700D811D1124911D0895F894FFCFD1
:0A0C2E003F065B4F666D7D077F6F88
:00000001FF
